{
  "_format": "hh-sol-artifact-1",
  "contractName": "WavePortal",
  "sourceName": "contracts/WavePortal.sol",
  "abi": [
    {
      "inputs": [],
      "stateMutability": "nonpayable",
      "type": "constructor"
    },
    {
      "anonymous": false,
      "inputs": [
        {
          "indexed": true,
          "internalType": "address",
          "name": "from",
          "type": "address"
        },
        {
          "indexed": false,
          "internalType": "uint256",
          "name": "timestamp",
          "type": "uint256"
        },
        {
          "indexed": false,
          "internalType": "string",
          "name": "message",
          "type": "string"
        }
      ],
      "name": "NewWave",
      "type": "event"
    },
    {
      "inputs": [],
      "name": "getAllWaves",
      "outputs": [
        {
          "components": [
            {
              "internalType": "address",
              "name": "waver",
              "type": "address"
            },
            {
              "internalType": "string",
              "name": "message",
              "type": "string"
            },
            {
              "internalType": "uint256",
              "name": "timestamp",
              "type": "uint256"
            }
          ],
          "internalType": "struct WavePortal.Wave[]",
          "name": "",
          "type": "tuple[]"
        }
      ],
      "stateMutability": "view",
      "type": "function"
    },
    {
      "inputs": [],
      "name": "getTotalWaves",
      "outputs": [
        {
          "internalType": "uint256",
          "name": "",
          "type": "uint256"
        }
      ],
      "stateMutability": "view",
      "type": "function"
    },
    {
      "inputs": [
        {
          "internalType": "address",
          "name": "_person",
          "type": "address"
        }
      ],
      "name": "getTotalWavesFromPerson",
      "outputs": [
        {
          "internalType": "uint256",
          "name": "",
          "type": "uint256"
        }
      ],
      "stateMutability": "view",
      "type": "function"
    },
    {
      "inputs": [
        {
          "internalType": "address",
          "name": "_person",
          "type": "address"
        },
        {
          "internalType": "string",
          "name": "_message",
          "type": "string"
        }
      ],
      "name": "wave",
      "outputs": [],
      "stateMutability": "nonpayable",
      "type": "function"
    }
  ],
  "bytecode": "0x60806040523480156200001157600080fd5b506200005d6040518060400160405280601c81526020017f596f6f6f6f6f6c6f2c207468697320697320617765736f6d65212121000000008152506200006360201b620004ce1760201c565b620001f7565b62000103816040516024016200007a919062000170565b6040516020818303038152906040527f41304fac000000000000000000000000000000000000000000000000000000007bffffffffffffffffffffffffffffffffffffffffffffffffffffffff19166020820180517bffffffffffffffffffffffffffffffffffffffffffffffffffffffff83818316178352505050506200010660201b60201c565b50565b60008151905060006a636f6e736f6c652e6c6f679050602083016000808483855afa5050505050565b60006200013c8262000194565b6200014881856200019f565b93506200015a818560208601620001b0565b6200016581620001e6565b840191505092915050565b600060208201905081810360008301526200018c81846200012f565b905092915050565b600081519050919050565b600082825260208201905092915050565b60005b83811015620001d0578082015181840152602081019050620001b3565b83811115620001e0576000848401525b50505050565b6000601f19601f8301169050919050565b610e8980620002076000396000f3fe608060405234801561001057600080fd5b506004361061004c5760003560e01c80631d0304971461005157806346bb6469146100815780639a2cdc081461009d578063bd43a908146100bb575b600080fd5b61006b60048036038101906100669190610887565b6100d9565b6040516100789190610b6d565b60405180910390f35b61009b600480360381019061009691906108b0565b610167565b005b6100a5610332565b6040516100b29190610b6d565b60405180910390f35b6100c361037d565b6040516100d09190610a8b565b60405180910390f35b600080600160008473ffffffffffffffffffffffffffffffffffffffff1673ffffffffffffffffffffffffffffffffffffffff16815260200190815260200160002054905061015e6040518060400160405280601f81526020017f5765206861766520256420746f74616c2077617665732066726f6d20257321008152508285610567565b80915050919050565b60008081548092919061017990610d55565b9190505550600160008373ffffffffffffffffffffffffffffffffffffffff1673ffffffffffffffffffffffffffffffffffffffff16815260200190815260200160002060008154809291906101ce90610d55565b9190505550600260405180606001604052803373ffffffffffffffffffffffffffffffffffffffff16815260200183815260200142815250908060018154018082558091505060019003906000526020600020906003020160009091909190915060008201518160000160006101000a81548173ffffffffffffffffffffffffffffffffffffffff021916908373ffffffffffffffffffffffffffffffffffffffff1602179055506020820151816001019080519060200190610292929190610767565b506040820151816002015550506102de6040518060400160405280600c81526020017f257320686173207761766564000000000000000000000000000000000000000081525033610606565b3373ffffffffffffffffffffffffffffffffffffffff167f5f7e16dc676677766a70e9c5628aa6c54ddb8b6e5188e2ae1e1f17f1ffbea7164283604051610326929190610b88565b60405180910390a25050565b60006103756040518060400160405280601781526020017f5765206861766520256420746f74616c207761766573210000000000000000008152506000546106a2565b600054905090565b60606002805480602002602001604051908101604052809291908181526020016000905b828210156104c557838290600052602060002090600302016040518060600160405290816000820160009054906101000a900473ffffffffffffffffffffffffffffffffffffffff1673ffffffffffffffffffffffffffffffffffffffff1673ffffffffffffffffffffffffffffffffffffffff16815260200160018201805461042a90610cf2565b80601f016020809104026020016040519081016040528092919081815260200182805461045690610cf2565b80156104a35780601f10610478576101008083540402835291602001916104a3565b820191906000526020600020905b81548152906001019060200180831161048657829003601f168201915b50505050508152602001600282015481525050815260200190600101906103a1565b50505050905090565b610564816040516024016104e29190610aad565b6040516020818303038152906040527f41304fac000000000000000000000000000000000000000000000000000000007bffffffffffffffffffffffffffffffffffffffffffffffffffffffff19166020820180517bffffffffffffffffffffffffffffffffffffffffffffffffffffffff838183161783525050505061073e565b50565b61060183838360405160240161057f93929190610b2f565b6040516020818303038152906040527fe3849f79000000000000000000000000000000000000000000000000000000007bffffffffffffffffffffffffffffffffffffffffffffffffffffffff19166020820180517bffffffffffffffffffffffffffffffffffffffffffffffffffffffff838183161783525050505061073e565b505050565b61069e828260405160240161061c929190610acf565b6040516020818303038152906040527f319af333000000000000000000000000000000000000000000000000000000007bffffffffffffffffffffffffffffffffffffffffffffffffffffffff19166020820180517bffffffffffffffffffffffffffffffffffffffffffffffffffffffff838183161783525050505061073e565b5050565b61073a82826040516024016106b8929190610aff565b6040516020818303038152906040527f9710a9d0000000000000000000000000000000000000000000000000000000007bffffffffffffffffffffffffffffffffffffffffffffffffffffffff19166020820180517bffffffffffffffffffffffffffffffffffffffffffffffffffffffff838183161783525050505061073e565b5050565b60008151905060006a636f6e736f6c652e6c6f679050602083016000808483855afa5050505050565b82805461077390610cf2565b90600052602060002090601f01602090048101928261079557600085556107dc565b82601f106107ae57805160ff19168380011785556107dc565b828001600101855582156107dc579182015b828111156107db5782518255916020019190600101906107c0565b5b5090506107e991906107ed565b5090565b5b808211156108065760008160009055506001016107ee565b5090565b600061081d61081884610bdd565b610bb8565b90508281526020810184848401111561083557600080fd5b610840848285610cb0565b509392505050565b60008135905061085781610e3c565b92915050565b600082601f83011261086e57600080fd5b813561087e84826020860161080a565b91505092915050565b60006020828403121561089957600080fd5b60006108a784828501610848565b91505092915050565b600080604083850312156108c357600080fd5b60006108d185828601610848565b925050602083013567ffffffffffffffff8111156108ee57600080fd5b6108fa8582860161085d565b9150509250929050565b60006109108383610a1d565b905092915050565b61092181610c74565b82525050565b61093081610c74565b82525050565b600061094182610c1e565b61094b8185610c41565b93508360208202850161095d85610c0e565b8060005b85811015610999578484038952815161097a8582610904565b945061098583610c34565b925060208a01995050600181019050610961565b50829750879550505050505092915050565b60006109b682610c29565b6109c08185610c52565b93506109d0818560208601610cbf565b6109d981610e2b565b840191505092915050565b60006109ef82610c29565b6109f98185610c63565b9350610a09818560208601610cbf565b610a1281610e2b565b840191505092915050565b6000606083016000830151610a356000860182610918565b5060208301518482036020860152610a4d82826109ab565b9150506040830151610a626040860182610a6d565b508091505092915050565b610a7681610ca6565b82525050565b610a8581610ca6565b82525050565b60006020820190508181036000830152610aa58184610936565b905092915050565b60006020820190508181036000830152610ac781846109e4565b905092915050565b60006040820190508181036000830152610ae981856109e4565b9050610af86020830184610927565b9392505050565b60006040820190508181036000830152610b1981856109e4565b9050610b286020830184610a7c565b9392505050565b60006060820190508181036000830152610b4981866109e4565b9050610b586020830185610a7c565b610b656040830184610927565b949350505050565b6000602082019050610b826000830184610a7c565b92915050565b6000604082019050610b9d6000830185610a7c565b8181036020830152610baf81846109e4565b90509392505050565b6000610bc2610bd3565b9050610bce8282610d24565b919050565b6000604051905090565b600067ffffffffffffffff821115610bf857610bf7610dfc565b5b610c0182610e2b565b9050602081019050919050565b6000819050602082019050919050565b600081519050919050565b600081519050919050565b6000602082019050919050565b600082825260208201905092915050565b600082825260208201905092915050565b600082825260208201905092915050565b6000610c7f82610c86565b9050919050565b600073ffffffffffffffffffffffffffffffffffffffff82169050919050565b6000819050919050565b82818337600083830152505050565b60005b83811015610cdd578082015181840152602081019050610cc2565b83811115610cec576000848401525b50505050565b60006002820490506001821680610d0a57607f821691505b60208210811415610d1e57610d1d610dcd565b5b50919050565b610d2d82610e2b565b810181811067ffffffffffffffff82111715610d4c57610d4b610dfc565b5b80604052505050565b6000610d6082610ca6565b91507fffffffffffffffffffffffffffffffffffffffffffffffffffffffffffffffff821415610d9357610d92610d9e565b5b600182019050919050565b7f4e487b7100000000000000000000000000000000000000000000000000000000600052601160045260246000fd5b7f4e487b7100000000000000000000000000000000000000000000000000000000600052602260045260246000fd5b7f4e487b7100000000000000000000000000000000000000000000000000000000600052604160045260246000fd5b6000601f19601f8301169050919050565b610e4581610c74565b8114610e5057600080fd5b5056fea264697066735822122056338e810cdee8134dc3f7489f6a441c84f1eb8c5fd676c94a9a9898606d1c2e64736f6c63430008040033",
  "linkReferences": {},
  "deployedLinkReferences": {}
}